{
  "contractName": "PredictionMarket",
  "abi": [
    {
      "inputs": [],
      "stateMutability": "nonpayable",
      "type": "constructor"
    },
    {
      "anonymous": false,
      "inputs": [
        {
          "indexed": true,
          "internalType": "address",
          "name": "predictor",
          "type": "address"
        },
        {
          "indexed": false,
          "internalType": "uint256",
          "name": "amount",
          "type": "uint256"
        },
        {
          "indexed": false,
          "internalType": "uint256",
          "name": "predictedValue",
          "type": "uint256"
        }
      ],
      "name": "NewPrediction",
      "type": "event"
    },
    {
      "anonymous": false,
      "inputs": [
        {
          "indexed": true,
          "internalType": "uint256",
          "name": "predictionId",
          "type": "uint256"
        },
        {
          "indexed": false,
          "internalType": "uint256",
          "name": "actualValue",
          "type": "uint256"
        }
      ],
      "name": "PredictionResultFetched",
      "type": "event"
    },
    {
      "inputs": [],
      "name": "owner",
      "outputs": [
        {
          "internalType": "address",
          "name": "",
          "type": "address"
        }
      ],
      "stateMutability": "view",
      "type": "function"
    },
    {
      "inputs": [],
      "name": "predictionFee",
      "outputs": [
        {
          "internalType": "uint256",
          "name": "",
          "type": "uint256"
        }
      ],
      "stateMutability": "view",
      "type": "function"
    },
    {
      "inputs": [
        {
          "internalType": "uint256",
          "name": "",
          "type": "uint256"
        }
      ],
      "name": "predictions",
      "outputs": [
        {
          "internalType": "address",
          "name": "predictor",
          "type": "address"
        },
        {
          "internalType": "uint256",
          "name": "amount",
          "type": "uint256"
        },
        {
          "internalType": "uint256",
          "name": "predictedValue",
          "type": "uint256"
        },
        {
          "internalType": "bool",
          "name": "resultFetched",
          "type": "bool"
        },
        {
          "internalType": "uint256",
          "name": "actualValue",
          "type": "uint256"
        }
      ],
      "stateMutability": "view",
      "type": "function"
    },
    {
      "inputs": [
        {
          "internalType": "uint256",
          "name": "predictedValue",
          "type": "uint256"
        }
      ],
      "name": "makePrediction",
      "outputs": [],
      "stateMutability": "payable",
      "type": "function"
    },
    {
      "inputs": [
        {
          "internalType": "uint256",
          "name": "predictionId",
          "type": "uint256"
        },
        {
          "internalType": "uint256",
          "name": "actualValue",
          "type": "uint256"
        }
      ],
      "name": "fetchPredictionResult",
      "outputs": [],
      "stateMutability": "nonpayable",
      "type": "function"
    },
    {
      "inputs": [
        {
          "internalType": "uint256",
          "name": "predictionId",
          "type": "uint256"
        }
      ],
      "name": "getPrediction",
      "outputs": [
        {
          "internalType": "address",
          "name": "",
          "type": "address"
        },
        {
          "internalType": "uint256",
          "name": "",
          "type": "uint256"
        },
        {
          "internalType": "uint256",
          "name": "",
          "type": "uint256"
        },
        {
          "internalType": "bool",
          "name": "",
          "type": "bool"
        },
        {
          "internalType": "uint256",
          "name": "",
          "type": "uint256"
        }
      ],
      "stateMutability": "view",
      "type": "function"
    },
    {
      "inputs": [],
      "name": "withdraw",
      "outputs": [],
      "stateMutability": "nonpayable",
      "type": "function"
    }
  ],
  "bytecode": "0x608060405234801561000f575f80fd5b50335f806101000a81548173ffffffffffffffffffffffffffffffffffffffff021916908373ffffffffffffffffffffffffffffffffffffffff160217905550662386f26fc10000600181905550610a8d8061006a5f395ff3fe60806040526004361061006e575f3560e01c80634d9615e01161004d5780634d9615e0146100f05780636fc060841461010c5780638da5cb5b14610136578063fe83bece146101605761006e565b80624fbbb0146100725780631c29a933146100b25780633ccfd60b146100da575b5f80fd5b34801561007d575f80fd5b5061009860048036038101906100939190610767565b6101a0565b6040516100a99594939291906107fa565b60405180910390f35b3480156100bd575f80fd5b506100d860048036038101906100d3919061084b565b61020c565b005b3480156100e5575f80fd5b506100ee6103a8565b005b61010a60048036038101906101059190610767565b61049a565b005b348015610117575f80fd5b5061012061061c565b60405161012d9190610889565b60405180910390f35b348015610141575f80fd5b5061014a610622565b60405161015791906108a2565b60405180910390f35b34801561016b575f80fd5b5061018660048036038101906101819190610767565b610645565b6040516101979594939291906107fa565b60405180910390f35b600281815481106101af575f80fd5b905f5260205f2090600502015f91509050805f015f9054906101000a900473ffffffffffffffffffffffffffffffffffffffff1690806001015490806002015490806003015f9054906101000a900460ff16908060040154905085565b5f8054906101000a900473ffffffffffffffffffffffffffffffffffffffff1673ffffffffffffffffffffffffffffffffffffffff163373ffffffffffffffffffffffffffffffffffffffff1614610299576040517f08c379a000000000000000000000000000000000000000000000000000000000815260040161029090610915565b60405180910390fd5b600282815481106102ad576102ac610933565b5b905f5260205f2090600502016003015f9054906101000a900460ff1615610309576040517f08c379a0000000000000000000000000000000000000000000000000000000008152600401610300906109aa565b60405180910390fd5b806002838154811061031e5761031d610933565b5b905f5260205f2090600502016004018190555060016002838154811061034757610346610933565b5b905f5260205f2090600502016003015f6101000a81548160ff021916908315150217905550817f246662c4f62a7e80ff12fb159b8f036f0201947f7483054fa1c7266bb24d33268260405161039c9190610889565b60405180910390a25050565b5f8054906101000a900473ffffffffffffffffffffffffffffffffffffffff1673ffffffffffffffffffffffffffffffffffffffff163373ffffffffffffffffffffffffffffffffffffffff1614610435576040517f08c379a000000000000000000000000000000000000000000000000000000000815260040161042c90610915565b60405180910390fd5b5f8054906101000a900473ffffffffffffffffffffffffffffffffffffffff1673ffffffffffffffffffffffffffffffffffffffff166108fc4790811502906040515f60405180830381858888f19350505050158015610497573d5f803e3d5ffd5b50565b6001543410156104df576040517f08c379a00000000000000000000000000000000000000000000000000000000081526004016104d690610a12565b60405180910390fd5b60026040518060a001604052803373ffffffffffffffffffffffffffffffffffffffff1681526020013481526020018381526020015f151581526020015f815250908060018154018082558091505060019003905f5260205f2090600502015f909190919091505f820151815f015f6101000a81548173ffffffffffffffffffffffffffffffffffffffff021916908373ffffffffffffffffffffffffffffffffffffffff16021790555060208201518160010155604082015181600201556060820151816003015f6101000a81548160ff0219169083151502179055506080820151816004015550503373ffffffffffffffffffffffffffffffffffffffff167feb01d40cd6bf13274ae56f34fab23301723fb31f82d017f8f759383c710f56163483604051610611929190610a30565b60405180910390a250565b60015481565b5f8054906101000a900473ffffffffffffffffffffffffffffffffffffffff1681565b5f805f805f806002878154811061065f5761065e610933565b5b905f5260205f2090600502016040518060a00160405290815f82015f9054906101000a900473ffffffffffffffffffffffffffffffffffffffff1673ffffffffffffffffffffffffffffffffffffffff1673ffffffffffffffffffffffffffffffffffffffff1681526020016001820154815260200160028201548152602001600382015f9054906101000a900460ff161515151581526020016004820154815250509050805f01518160200151826040015183606001518460800151955095509550955095505091939590929450565b5f80fd5b5f819050919050565b61074681610734565b8114610750575f80fd5b50565b5f813590506107618161073d565b92915050565b5f6020828403121561077c5761077b610730565b5b5f61078984828501610753565b91505092915050565b5f73ffffffffffffffffffffffffffffffffffffffff82169050919050565b5f6107bb82610792565b9050919050565b6107cb816107b1565b82525050565b6107da81610734565b82525050565b5f8115159050919050565b6107f4816107e0565b82525050565b5f60a08201905061080d5f8301886107c2565b61081a60208301876107d1565b61082760408301866107d1565b61083460608301856107eb565b61084160808301846107d1565b9695505050505050565b5f806040838503121561086157610860610730565b5b5f61086e85828601610753565b925050602061087f85828601610753565b9150509250929050565b5f60208201905061089c5f8301846107d1565b92915050565b5f6020820190506108b55f8301846107c2565b92915050565b5f82825260208201905092915050565b7f4f6e6c79206f776e65722063616e2063616c6c207468697300000000000000005f82015250565b5f6108ff6018836108bb565b915061090a826108cb565b602082019050919050565b5f6020820190508181035f83015261092c816108f3565b9050919050565b7f4e487b71000000000000000000000000000000000000000000000000000000005f52603260045260245ffd5b7f526573756c7420616c72656164792066657463686564000000000000000000005f82015250565b5f6109946016836108bb565b915061099f82610960565b602082019050919050565b5f6020820190508181035f8301526109c181610988565b9050919050565b7f496e73756666696369656e7420666565000000000000000000000000000000005f82015250565b5f6109fc6010836108bb565b9150610a07826109c8565b602082019050919050565b5f6020820190508181035f830152610a29816109f0565b9050919050565b5f604082019050610a435f8301856107d1565b610a5060208301846107d1565b939250505056fea26469706673582212207760cd5fe63c2ec1fffbc7e761d161285cabb7c5f4986352a66f18d048d7708664736f6c63430008150033",
  "immutableReferences": {},
  "source": "// SPDX-License-Identifier: MIT\r\npragma solidity ^0.8.21;\r\n\r\ncontract PredictionMarket {\r\n    address public owner;\r\n    uint public predictionFee;\r\n\r\n    constructor() {\r\n        owner = msg.sender;\r\n        predictionFee = 0.01 ether;\r\n    }\r\n\r\n    struct Prediction {\r\n        address predictor;\r\n        uint amount;\r\n        uint predictedValue;\r\n        bool resultFetched;\r\n        uint actualValue;\r\n    }\r\n\r\n    Prediction[] public predictions;\r\n\r\n    event NewPrediction(address indexed predictor, uint amount, uint predictedValue);\r\n    event PredictionResultFetched(uint indexed predictionId, uint actualValue);\r\n\r\n    modifier onlyOwner() {\r\n        require(msg.sender == owner, \"Only owner can call this\");\r\n        _;\r\n    }\r\n\r\n    function makePrediction(uint predictedValue) public payable {\r\n        require(msg.value >= predictionFee, \"Insufficient fee\");\r\n        predictions.push(Prediction(msg.sender, msg.value, predictedValue, false, 0));\r\n        emit NewPrediction(msg.sender, msg.value, predictedValue);\r\n    }\r\n\r\n    function fetchPredictionResult(uint predictionId, uint actualValue) public onlyOwner {\r\n        require(!predictions[predictionId].resultFetched, \"Result already fetched\");\r\n        predictions[predictionId].actualValue = actualValue;\r\n        predictions[predictionId].resultFetched = true;\r\n        emit PredictionResultFetched(predictionId, actualValue);\r\n    }\r\n\r\n    function getPrediction(uint predictionId) public view returns (address, uint, uint, bool, uint) {\r\n        Prediction memory p = predictions[predictionId];\r\n        return (p.predictor, p.amount, p.predictedValue, p.resultFetched, p.actualValue);\r\n    }\r\n\r\n    function withdraw() public onlyOwner {\r\n        payable(owner).transfer(address(this).balance);\r\n    }\r\n}\r\n",
  "sourcePath": "D:\\hackindia\\smart contract\\contracts\\contract.sol",
  "compiler": {
    "name": "solc",
    "version": "0.8.21+commit.d9974bed.Emscripten.clang"
  },
  "schemaVersion": "3.4.16",
  "updatedAt": "2024-09-07T04:20:57.075Z",
  "devdoc": {
    "kind": "dev",
    "methods": {},
    "version": 1
  },
  "userdoc": {
    "kind": "user",
    "methods": {},
    "version": 1
  }
}