{
  "contractName": "PricePrediction",
  "abi": [
    {
      "inputs": [],
      "stateMutability": "nonpayable",
      "type": "constructor"
    },
    {
      "inputs": [],
      "name": "owner",
      "outputs": [
        {
          "internalType": "address",
          "name": "",
          "type": "address"
        }
      ],
      "stateMutability": "view",
      "type": "function"
    },
    {
      "inputs": [],
      "name": "predictedPrice",
      "outputs": [
        {
          "internalType": "uint256",
          "name": "",
          "type": "uint256"
        }
      ],
      "stateMutability": "view",
      "type": "function"
    },
    {
      "inputs": [
        {
          "internalType": "uint256",
          "name": "_price",
          "type": "uint256"
        }
      ],
      "name": "updatePredictedPrice",
      "outputs": [],
      "stateMutability": "nonpayable",
      "type": "function"
    }
  ],
  "bytecode": "0x608060405234801561000f575f80fd5b50335f806101000a81548173ffffffffffffffffffffffffffffffffffffffff021916908373ffffffffffffffffffffffffffffffffffffffff1602179055506102eb8061005c5f395ff3fe608060405234801561000f575f80fd5b506004361061003f575f3560e01c80638da5cb5b14610043578063a27afd6714610061578063d9a7713c1461007f575b5f80fd5b61004b61009b565b604051610058919061019a565b60405180910390f35b6100696100be565b60405161007691906101cb565b60405180910390f35b61009960048036038101906100949190610212565b6100c4565b005b5f8054906101000a900473ffffffffffffffffffffffffffffffffffffffff1681565b60015481565b5f8054906101000a900473ffffffffffffffffffffffffffffffffffffffff1673ffffffffffffffffffffffffffffffffffffffff163373ffffffffffffffffffffffffffffffffffffffff1614610151576040517f08c379a000000000000000000000000000000000000000000000000000000000815260040161014890610297565b60405180910390fd5b8060018190555050565b5f73ffffffffffffffffffffffffffffffffffffffff82169050919050565b5f6101848261015b565b9050919050565b6101948161017a565b82525050565b5f6020820190506101ad5f83018461018b565b92915050565b5f819050919050565b6101c5816101b3565b82525050565b5f6020820190506101de5f8301846101bc565b92915050565b5f80fd5b6101f1816101b3565b81146101fb575f80fd5b50565b5f8135905061020c816101e8565b92915050565b5f60208284031215610227576102266101e4565b5b5f610234848285016101fe565b91505092915050565b5f82825260208201905092915050565b7f4e6f7420617574686f72697a65640000000000000000000000000000000000005f82015250565b5f610281600e8361023d565b915061028c8261024d565b602082019050919050565b5f6020820190508181035f8301526102ae81610275565b905091905056fea2646970667358221220fc81dd3cf27efcfb084891c031fad9bc17e08280a577242a05926a63d532122564736f6c63430008150033",
  "immutableReferences": {},
  "source": "// SPDX-License-Identifier: MIT\r\npragma solidity ^0.8.0;\r\n\r\ncontract PricePrediction {\r\n    address public owner;\r\n    uint256 public predictedPrice;\r\n\r\n    constructor() {\r\n        owner = msg.sender;\r\n    }\r\n\r\n    modifier onlyOwner() {\r\n        require(msg.sender == owner, \"Not authorized\");\r\n        _;\r\n    }\r\n\r\n    function updatePredictedPrice(uint256 _price) public onlyOwner {\r\n        predictedPrice = _price;\r\n    }\r\n}\r\n",
  "sourcePath": "D:\\hackindia\\smart contract\\contracts\\contract.sol",
  "compiler": {
    "name": "solc",
    "version": "0.8.21+commit.d9974bed.Emscripten.clang"
  },
  "schemaVersion": "3.4.16",
  "updatedAt": "2024-09-07T03:28:17.999Z",
  "devdoc": {
    "kind": "dev",
    "methods": {},
    "version": 1
  },
  "userdoc": {
    "kind": "user",
    "methods": {},
    "version": 1
  }
}